:020000040800F2
:10000000000002204D2500083504000837040008D0
:10001000390400083B0400083D040008000000000B
:100020000000000000000000000000003F04000885
:1000300041040008000000004304000845040008D3
:100040009D2500089D2500089D2500089D25000888
:100050009D2500089D2500089D2500089D25000878
:100060009D2500089D2500089D2500089D25000868
:100070009D2500089D2500089D2500089D25000858
:100080009D2500089D2500089D2500089D25000848
:100090009D2500089D2500089D2500089D25000838
:1000A0009D2500089D2500089D2500089D25000828
:1000B0009D2500089D2500089D2500089D25000818
:1000C0009D2500089D2500089D2500089D25000808
:1000D0009D2500089D2500089D2500089D250008F8
:1000E0009D2500089D2500089D2500089D250008E8
:1000F0009D2500089D2500089D2500089D250008D8
:100100009D2500089D2500089D2500089D250008C7
:100110009D2500089D2500089D2500089D250008B7
:100120004D0400089D2500089D2500089D25000818
:100130009D25000800000000000000009D2500082B
:100140009D2500089D2500089D2500089D25000887
:100150009D2500089D2500089D2500089D25000877
:100160009D2500089D2500089D2500089D25000867
:100170009D2500089D2500080000000000000000EB
:080180009D2500089D250008E3
:1001900001F0FF01102A2BDB10F0070F08D010F838
:1001A000013B013A8B422DD010F0070F42B3F6D13C
:1001B000F0B441EA012141EA014122F007047FF055
:1001C00000070023F0E80256083C85EA010586EAAC
:1001D000010685FA47F5A3FA87F586FA47F6A5FAE8
:1001E00087F68EB9EED1F0BC01F0FF0102F00702F4
:1001F00032B110F8013B013A83EA010313B1F8D19F
:100200000020704701387047002D06BF354603387F
:10021000073815F0010F07D1013015F4807F02BFB8
:10022000013015F4C03F0130F0BC0138704700BF09
:1002300053B94AB9002908BF00281CBF4FF0FF314D
:100240004FF0FF3000F00CB8ADF1080C6DE904CEB2
:1002500002F068FEDDF804E0DDE9022304B0704737
:10026000704700BF0348044B834202D0034B03B1E5
:10027000184770475C0000205C0000200000000070
:100280000548064B1B1AD90F01EBA301491002D0F8
:10029000034B03B1184770475C0000205C0000204E
:1002A0000000000010B5064C237843B9FFF7DAFFD1
:1002B000044B13B10448AFF300800123237010BD39
:1002C0005C000020000000004432000808B5054B27
:1002D0001BB105490548AFF30080BDE80840FFF7B2
:1002E000CFBF00BF000000006000002044320008C3
:1002F00072B6FEE710B594B008AC3022002120465B
:1003000002F080F900230393049305930693079367
:100310000193204A116C41F080511164126C02F07B
:1003200080520192019A02931B4B1A6842F4804258
:100330001A601B6803F480430293029B0123089315
:100340004FF48033099302230E934FF480020F92EF
:1003500008221092A8221192129307231393204689
:1003600000F058FB88B90F230393022304930590F0
:100370004FF4A05306934FF480530793052103A82D
:1003800000F0B4FD18B914B010BDFFF7B1FFFFF7CE
:10039000AFFF00BF003802400070004030B595B09C
:1003A00001F042FAFFF7A6FF01F0F0FE01F0E2FFD4
:1003B00001F02AFF02F03AF802F076F80522174918
:1003C000174800F02DF9174C0021204601F05CFC85
:1003D000236811225A63114A1388518889B2908880
:1003E00080B2D488A4B2128992B204AD039202946E
:1003F000019000919BB20C4A4021284602F0D0F8AF
:100400000A2382B22946094801F02AFE042108483D
:1004100000F04CFF642001F033FADCE778000020A4
:10042000EC000020340100205C3200087C01002038
:1004300000040240FEE7FEE7FEE7FEE7FEE7704746
:100440007047704708B501F009FA08BD08B50248C1
:1004500001F056F808BD00BF8C00002082B00021DA
:1004600000910B4B5A6C42F480425A645A6C02F46D
:1004700080420092009A01911A6C42F080521A64F4
:100480001B6C03F080530193019B02B0704700BFC7
:10049000003802404A4B5A6822F440325A605A6887
:1004A00041680A435A600268536823F480735360BA
:1004B00002685368016943EA012353600268536884
:1004C00023F0407353600268536881680B435360A4
:1004D0000268936823F40063936002689368C168BC
:1004E0000B439360826A374B9A4257D002689368F5
:1004F00023F07063936002689368816A0B43936092
:100500000268936823F04053936002689368C16A5D
:100510000B4393600268936823F0020393600268C0
:100520009368017E43EA4103936090F82030002BEA
:100530003FD00268536843F4006353600268536815
:1005400023F46043536001684B68426A013A43EA0E
:1005500042334B600268D36A23F47003D3620168AC
:10056000CB6AC269013A43EA0253CB6202689368DC
:1005700023F4007393600268936890F8301043EAA4
:10058000412393600268936823F480639360026858
:100590009368416943EA81239360704702689368D6
:1005A00023F0706393600268936823F04053936074
:1005B000B0E70268536823F400635360CAE700BFE2
:1005C000002301400100000F38B310B50446036C4E
:1005D00043B1236C13F0100F0BD00120002384F8DB
:1005E0003C3010BD01F070FE0023636484F83C30A1
:1005F000EFE7236C23F4885323F0020343F0020354
:1006000023642046FFF746FF00206064236C23F03C
:10061000030343F001032364E0E701207047000077
:1006200010B582B013460022019290F83C20012AB6
:1006300000F0A7800446012280F83C200268906800
:1006400010F0010F13D1906840F0010090604E4A05
:1006500010684E4AA2FB0020800C00EB4000019085
:1006600002E001980138019001980028F9D1226830
:10067000906810F4807F03D0906820F480709060C0
:100680002268906810F0010F70D0206C20F4E060B8
:1006900020F0010040F480702064526812F4806FF2
:1006A00005D0226C22F4405242F480522264226C23
:1006B00012F4805F3BD0626C22F00602626400227A
:1006C00084F83C20A26B3248D063A26B314810649E
:1006D000A26B3148D06422686FF02200106020685D
:1006E000426842F0806242602068826842F4807210
:1006F000826020680A4600F14C01A06B00F0CAFE3F
:10070000264B5B6813F01F0F23D12368244A9342C2
:1007100016D002F5807293420CD0224A93422ED119
:1007200002F58072526812F0100F28D108E0002202
:100730006264C4E702F50072526812F01F0FECD138
:100740009A6812F0405F1AD19A6842F080429A602B
:1007500015E02368124A934211D19A6812F0405F63
:100760000DD19A6842F080429A6008E0236C43F011
:1007700010032364636C43F001036364002002B040
:1007800010BD0220FBE700BF0800002083DE1B43F2
:10079000CF070008AD070008B90700080023014093
:1007A00000200140002201407047704708B5806B6F
:1007B000FFF7FBFF08BD704708B5806B402303645B
:1007C000436C43F004034364FFF7F5FF08BD08B52D
:1007D0000346806B026C12F0500F25D1036C43F47A
:1007E0000073036403689A6812F0405F19D1027EB7
:1007F000BAB9DA6A12F4700F03D09A6812F4806FF3
:100800000FD15A6822F020025A60036C23F48073DF
:100810000364036C13F4805F03D1036C43F00103A2
:100820000364FFF7C1FF08BD026C12F0100F04D182
:10083000826BD26C18469047F5E7FFF7BCFFF2E7F2
:1008400010B582B00022019290F83C20012A00F0FD
:10085000D7800346012280F83C200A68092A4BD938
:10086000D0F800E0DEF80C0092B20A3A02EB420245
:100870004FF0070C0CFA02F220EA0202CEF80C202C
:10088000D3F800C0DCF80C000A880A3A02EB4202F6
:100890008C6804FA02F20243CCF80C204A68062A5B
:1008A00047D8D3F800E0DEF83400013A02EB8202C8
:1008B0004FF01F0C0CFA02F220EA0202CEF83420AC
:1008C000D3F800E0DEF834004A68013A02EB820215
:1008D000B1F800C00CFA02F20243CEF834201868D6
:1008E000484A904265D01868464A90426AD0002033
:1008F00083F83C0002B010BDD0F800E0DEF8100034
:1009000092B202EB42024FF0070C0CFA02F220EA1C
:100910000202CEF81020D3F800C0DCF810000A88DC
:1009200002EB42028C6804FA02F20243CCF8102077
:10093000B4E70C2A1ED8D3F800E0DEF83000073AFE
:1009400002EB82024FF01F0C0CFA02F220EA0202C4
:10095000CEF83020D3F800E0DEF830004A68073ADD
:1009600002EB8202B1F800C00CFA02F20243CEF8A8
:100970003020B4E7D3F800E0DEF82C000D3A02EBAB
:1009800082024FF01F0C0CFA02F220EA0202CEF8AB
:100990002C20D3F800E0DEF82C004A680D3A02EB78
:1009A0008202B1F800C00CFA02F20243CEF82C2009
:1009B00095E70A68122A96D11348426842F48002E9
:1009C000426090E70A68103A012A90D80E484268BF
:1009D00042F4000242600A68102A88D10B4A126869
:1009E0000B49A1FB0212920C02EB8202520001920F
:1009F00002E0019A013A0192019A002AF9D176E7C0
:100A0000022077E700200140002301400800002079
:100A100083DE1B43002800F0E28170B582B00446FB
:100A2000036813F0010F3BD09B4B9B6803F00C0352
:100A3000042B2CD0984B9B6803F00C03082B21D07F
:100A40006368B3F5803F4FD0B3F5A02F52D0924BDF
:100A50001A6822F480321A601A6822F480221A601E
:100A60006368002B50D000F005FF05468A4B1B68D9
:100A700013F4003F14D100F0FDFE401B6428F5D9AB
:100A80000320B3E1844B5B6813F4800FD8D0824B12
:100A90001B6813F4003F03D06368002B00F0A181B2
:100AA000236813F0020F54D07B4B9B6813F00C0F9C
:100AB0003ED0794B9B6803F00C03082B33D0E368DE
:100AC000002B68D0754B01221A6000F0D3FE05465A
:100AD000714B1B6813F0020F54D100F0CBFE401B8A
:100AE0000228F5D9032081E16B4A136843F480336F
:100AF0001360B5E7684B1A6842F480221A601A68DE
:100B000042F480321A60ABE700F0B4FE0546624B57
:100B10001B6813F4003FC3D000F0ACFE401B6428F8
:100B2000F5D9032062E15C4B5B6813F4800FC6D1FA
:100B3000594B1B6813F0020F03D0E368012B40F000
:100B40005281554A136823F0F803216943EAC1032F
:100B50001360236813F0080F42D063696BB34F4BE7
:100B60000122C3F8802E00F085FE05464A4B5B6FDC
:100B700013F0020F34D100F07DFE401B0228F5D99E
:100B8000032033E1444A136823F0F803216943EA60
:100B9000C1031360DDE7414B00221A6000F06AFEDA
:100BA00005463D4B1B6813F0020FD2D000F062FEE9
:100BB000401B0228F5D9032018E1384B0022C3F866
:100BC000802E00F057FE0546334B5B6F13F0020F8B
:100BD00006D000F04FFE401B0228F5D9032005E1A6
:100BE000236813F0040F79D02B4B1B6C13F0805F3C
:100BF00034D100230193284B1A6C42F080521A64BE
:100C00001B6C03F080530193019B01231E46244B70
:100C10001B6813F4807F24D0A368012B35D0052BEB
:100C200040D01D4B1A6F22F001021A671A6F22F092
:100C300004021A67A368002B3ED000F01BFE054695
:100C4000154B1B6F13F0020F47D100F013FE401B32
:100C500041F288339842F3D90320C7E000231E46AF
:100C6000D5E70F4A136843F48073136000F002FE67
:100C700005460B4B1B6813F4807FCDD100F0FAFDC5
:100C8000401B0228F5D90320B0E0034A136F43F05C
:100C900001031367CEE700BF00380240000047425F
:100CA00000700040584B1A6F42F004021A671A6F26
:100CB00042F001021A67BDE700F0DCFD0546524B29
:100CC0001B6F13F0020F08D000F0D4FD401B41F25F
:100CD00088339842F3D9032088E0EEB9A369002B4A
:100CE00000F08380484A926802F00C02082A51D032
:100CF000022B17D0454B00221A6600F0BBFD0446BC
:100D0000414B1B6813F0007F42D000F0B3FD001B85
:100D10000228F5D9032069E03B4A136C23F0805385
:100D20001364DBE7394B00221A6600F0A3FD054689
:100D3000354B1B6813F0007F06D000F09BFD401B75
:100D40000228F5D9032051E0E369226A1343626A5D
:100D500043EA8213A26A5208013A43EA0243E26A72
:100D600043EA0263284A5360284B01221A6600F0C6
:100D700081FD0446244B1B6813F0007F06D100F070
:100D800079FD001B0228F5D903202FE000202DE07B
:100D900000202BE0012B2BD01B4B5B6803F4800160
:100DA000E269914226D103F03F02216A8A4223D1AF
:100DB000616A47F6C0721A40B2EB811F1ED103F47C
:100DC0004031A26A5208013AB1EB024F18D103F048
:100DD0007063E26AB3EB026F14D1002006E00120D9
:100DE0007047012002E0012000E0184602B070BD0B
:100DF0000120FBE70120F9E70120F7E70120F5E7F3
:100E00000120F3E70120F1E70038024000004742EB
:100E100008B5334B9B6803F00C03042B5BD0082B05
:100E20005BD12F4B5A6802F03F025B6813F4800FCE
:100E30002CD02B4B5868C0F388104FEA401CBCEBF9
:100E4000000C6EEB0E0E4FEA8E1343EA9C634FEAE2
:100E50008C11B1EB0C0163EB0E03DB0043EA517321
:100E6000C90011EB000C43F10003590200234FEAC3
:100E70004C2041EADC51FFF7DBF9194B5B68C3F307
:100E8000014301335B00B0FBF3F008BD144B58681D
:100E9000C0F388104FEA401CBCEB000C6EEB0E0E4A
:100EA0004FEA8E1343EA9C634FEA8C11B1EB0C01BD
:100EB00063EB0E03DB0043EA5173C90011EB000C36
:100EC00043F10003990200234FEA8C2041EA9C5130
:100ED000FFF7AEF9D1E70348D7E70348D5E700BFEE
:100EE0000038024000127A000024F400002800F0CC
:100EF0009B8070B50D4604464F4B1B6803F00703FB
:100F00008B4208D2CBB24C4A1370136803F007032C
:100F10008B4240F08B80236813F0020F17D013F040
:100F2000040F04D0454A936843F4E0539360236868
:100F300013F0080F04D0414A936843F46043936070
:100F40003E4A936823F0F003A1680B439360236843
:100F500013F0010F32D06368012B21D09A1E012AB1
:100F600025D9364A126812F0020F61D033498A68D7
:100F700022F0030213438B6000F07CFC06462F4BEB
:100F80009B6803F00C036268B3EB820F16D000F08D
:100F900071FC801B41F288339842F0D9032042E073
:100FA000264A126812F4003FE0D101203BE0234AB8
:100FB000126812F0007FD9D1012034E01E4B1B686B
:100FC00003F00703AB4207D9EAB21B4B1A701B6848
:100FD00003F00703AB422DD1236813F0040F06D0B2
:100FE000164A936823F4E053E1680B439360236847
:100FF00013F0080F07D0114A936823F46043216966
:1010000043EAC1039360FFF703FF0C4B9B68C3F3F4
:1010100003130B4AD35CD8400A4B18600A4B18687C
:1010200000F0DCFB002070BD012070470120FAE7D2
:101030000120F8E70120F6E7003C024000380240BA
:101040007C3200080800002004000020014B1868D2
:10105000704700BF0800002008B5FFF7F7FF044BFA
:101060009B68C3F38223034AD35CD84008BD00BF0A
:10107000003802407432000808B5FFF7E7FF044B60
:101080009B68C3F34233034AD35CD84008BD00BF1A
:10109000003802407432000870B582B08E460023DA
:1010A00069E085684FEA430C032101FA0CF125EA57
:1010B0000105DEF80C1001FA0CF12943816041684A
:1010C00021EA0201DEF80420C2F300129A400A432A
:1010D000426065E0D908083150F8212003F0070587
:1010E000AD004FF00F0C0CFA05FC22EA0C0CDEF8F8
:1010F0001020AA4042EA0C0240F8212067E00722B3
:1011000000E0002202FA0CF22A430231604D45F859
:101110002120604A9168E24321EA0405DEF8046078
:1011200016F4801F01D044EA01055A498D60C96850
:1011300002EA0105DEF8046016F4001F01D044EA5B
:1011400001055449CD60496802EA0105DEF80460F2
:1011500016F4003F01D044EA01054E494D6009688C
:101160000A40DEF8045015F4803F01D044EA010241
:1011700048490A6001330F2B00F2878001229A4010
:10118000DEF8001001EA020432EA0101F2D1DEF8D1
:10119000041001F0030C0CF1FF3CBCF1010F80D9ED
:1011A000DEF8042002F00302032A0AD0C1685D00C1
:1011B0000322AA4021EA0201DEF80820AA400A43DD
:1011C000C260DEF8042002F00302022A82D0016825
:1011D0004FEA430C032202FA0CF221EA0201DEF884
:1011E000042002F0030202FA0CF20A430260DEF865
:1011F000042012F4403FBDD000220192264A516CD7
:1012000041F480415164526C02F480420192019A8F
:1012100099088D1C1E4A52F8255003F0030C4FEA22
:101220008C0C0F2202FA0CF225EA02051B4A9042AE
:101230003FF467AF02F5806290421AD002F58062F7
:10124000904218D002F58062904216D002F580627A
:10125000904214D002F58062904212D002F5806272
:10126000904210D002F5806290423FF448AF0822CD
:1012700048E7012246E7022244E7032242E704222C
:1012800040E705223EE706223CE702B070BD00BF02
:1012900000380140003C014000380240000002409C
:1012A0000AB181617047090481617047436901EAAD
:1012B000030221EA030141EA02418161704710B54E
:1012C000D0F800E0DEF800C02CF4802CCEF800C08E
:1012D000046863608368402B04D0036899600368E6
:1012E000DA6010BD03689A600368D960F9E700000E
:1012F0000368D9B210390A4AA2FB01C21209DFF809
:1013000024C01CF80220C2655F2905D96FF30903C8
:1013100004338365806D70476FF309038365F9E7D4
:10132000ABAAAAAA6C320008836A826992B9012B1F
:101330000AD0022B02D00BB100207047C36A13F011
:10134000807F2CD100207047C36AB3F1C07F28D0C2
:1013500000207047B2F5005F09D0022B2BD9032B78
:101360002BD1C36A13F0807F29D100207047022B54
:1013700019D00AD8CBB1012B05D1C36A13F0807FF5
:1013800015D10020704700207047032B05D1C36A98
:10139000B3F1C07F0DD000207047002070470120BE
:1013A00070470120704701207047012070470120DD
:1013B00070470120704701207047002070470120CE
:1013C0007047000070B5044600F054FA002C5CD061
:1013D0000546022384F83530002384F8343022682F
:1013E000136823F00103136023681A6812F0010FD9
:1013F0000AD000F03FFA431B052BF5D92023636583
:10140000032084F8350070BD1A68214911406268D4
:10141000A0680243E0680243206902436069024316
:10142000A0690243E0690243206A02430A43616AF9
:1014300004291FD01A6023681E465D6925F0070540
:10144000636A1D43042B07D1A36A1D43E36A1BB1E2
:101450002046FFF769FF90B975612046FFF748FF06
:10146000E26D3F239340836000206065012384F890
:101470003530C8E7E16A206B01430A43DAE74023CD
:101480006365012084F83500BDE70120BBE700BF9C
:101490003F8010F038B50446806D054694F834005E
:1014A00001282AD0012084F8340094F8350001285E
:1014B00004D0002384F83430022038BD022084F8A0
:1014C0003500002060652046FFF7F9FEE26D3F23FE
:1014D0009340AB602268136843F016031360236CDB
:1014E00023B12268136843F008031360226813686D
:1014F00043F0010313600020DFE70220DDE7000076
:10150000F0B583B0044600230193724B1D68724B03
:10151000A3FB0535AD0A876D3E68C26D0823934075
:10152000334210D003681A6812F0040F0BD01A6807
:1015300022F004021A60C26D08239340BB60436D21
:1015400043F001034365E26D01239340334209D028
:101550002268526912F0800F04D0BB60636D43F0C3
:1015600002036365E26D04239340334209D022688D
:10157000126812F0020F04D0BB60636D43F00403E5
:101580006365E26D10239340334224D022681268D1
:1015900012F0080F1FD0BB6023681A6812F4802F66
:1015A0000DD01B6813F4002F04D1236C9BB120468F
:1015B000984710E0A36C73B1204698470BE01A6877
:1015C00012F4807F03D11A6822F008021A60236C9B
:1015D0000BB120469847E26D20239340334254D00C
:1015E0002268126812F0100F4FD0BB6094F83530AB
:1015F000052B0ED023681A6812F4802F33D01B6895
:1016000013F4002F2AD1636C002B3ED0204698475C
:101610003BE02268136823F01603136022685369C5
:1016200023F080035361236CA3B12268136823F075
:1016300008031360E26D3F239340BB60012384F8ED
:101640003530002384F83430236D002B3FD0204602
:1016500098473CE0A36C002BE7D1EBE7E36BA3B129
:101660002046984711E01A6812F4807F09D11A6861
:1016700022F010021A60012384F83530002384F828
:101680003430E36B0BB120469847636DFBB1636D5B
:1016900013F0010F17D0052384F835302268136842
:1016A00023F001031360019B01330193AB4204D883
:1016B00023681B6813F0010FF5D1012384F835303E
:1016C000002384F83430E36C0BB12046984703B014
:1016D000F0BD00BF08000020B5814E1B002807DBCD
:1016E00000F01F02400901239340024A42F82030D3
:1016F000704700BF00E100E0002808DB0901C9B223
:1017000000F1604000F5614080F80013704700F080
:101710000F000901C9B2014B1954704714ED00E0E4
:1017200000B500F00700A0F1030CBCF1040F07D8CE
:10173000C0F1070E0430062806D84FF0000C03E075
:101740004FF0040E4FF0000C4FF0FF3303FA0EF091
:1017500021EA000101FA0CF103FA0CF322EA030278
:1017600041EA020000BD0000074AD36823F4E063A9
:101770001B041B0C000200F4E060034343F0BF6352
:1017800043F40033D360704700ED00E010B5044629
:10179000054BD868C0F30220FFF7C2FF0146204680
:1017A000FFF7AAFF10BD00BF00ED00E008B5FFF78E
:1017B00095FF08BD0138B0F1807F0BD24FF0E023D8
:1017C0005861054AF02182F8231000209861072211
:1017D0001A6170470120704700ED00E010B5044623
:1017E0000E4B18680E4B1A784FF47A73B3FBF2F372
:1017F000B0FBF3F0FFF7DEFF68B90F2C01D9012031
:101800000AE0024621464FF0FF30FFF7BFFF054BCD
:101810001C60002000E0012010BD00BF0800002077
:10182000000000200400002008B50B4B1A6842F4A9
:1018300000721A601A6842F480621A601A6842F4F0
:1018400080721A600320FFF78FFF0F20FFF7C6FF9B
:10185000FEF704FE002008BD003C0240034A116868
:10186000034B1B780B441360704700BF84000020BB
:1018700000000020014B1868704700BF8400002062
:1018800038B50446FFF7F6FF0546B4F1FF3F02D036
:10189000044B1B781C44FFF7EDFF401BA042FAD31A
:1018A00038BD00BF0000002010B5036A026A22F0B4
:1018B000010202624268D0F818C02CF0730C0C6868
:1018C00044EA0C0C23F0020E8B6843EA0E03DFF8A7
:1018D00048E0704503D00EF5806E704505D123F0C9
:1018E0000803CC68234323F00403DFF82CE07045A1
:1018F00003D00EF5806E704507D122F440724C691A
:1019000044EA020E8A6942EA0E024260C0F818C038
:101910004A684263036210BD0000014010B5036ACB
:10192000026A22F4807202624268D0F81CC02CF075
:10193000730C0C6844EA0C0E23F400738C6843EAC1
:101940000423DFF84CC0604503D00CF5806C604583
:1019500006D123F40063CC6843EA042323F48063B4
:10196000DFF82CC0604503D00CF5806C604507D1D2
:1019700022F440524C6942EA04128C6942EA041291
:101980004260C0F81CE04A68C263036210BD00BF39
:101990000000014010B5036A026A22F4805202621C
:1019A000D0F804C0C26922F4E6420C6842EA04227C
:1019B00023F400538C6843EA0433DFF828E07045D1
:1019C00003D00EF5806E704504D12CF4804C4C6928
:1019D0004CEA841CC0F804C0C2614A680264036215
:1019E00010BD00BF000001400368324A904212D08F
:1019F000B0F1804F0FD0A2F57C4290420BD002F59F
:101A00008062904207D002F58062904203D002F5D6
:101A10007842904203D123F070034A681343254A69
:101A200090422AD0B0F1804F27D0A2F57C4290425C
:101A300023D002F5806290421FD002F5806290426E
:101A40001BD002F57842904217D002F570529042B6
:101A500013D002F5806290420FD002F5806290426E
:101A60000BD0A2F59832904207D002F580629042E6
:101A700003D002F58062904203D123F44073CA6818
:101A8000134323F080034A6913438A68C2620A68D9
:101A90008262084A904203D002F58062904201D1EE
:101AA0000A690263026842F0040202600122426194
:101AB000036070470000014040B310B5044690F841
:101AC0003D30F3B1022384F83D30214651F8040B38
:101AD000FFF78AFF012384F8463084F83E3084F80B
:101AE0003F3084F8403084F8413084F8423084F844
:101AF000433084F8443084F8453084F83D30002089
:101B000010BD80F83C3000F04FFCDBE7012070474F
:101B100010B5036A026A22F010020262D0F804C013
:101B2000826922F4E6420C6842EA042223F0200390
:101B30008C6843EA0413DFF84CE0704503D00EF5DF
:101B4000806E704506D123F08003CC6843EA04130D
:101B500023F04003DFF82CE0704503D00EF5806ED3
:101B6000704507D12CF4406C4C694CEA840C8C69AC
:101B70004CEA840CC0F804C082614A688263036244
:101B800010BD00BF0000014038B590F83C30012B7B
:101B900069D00446012380F83C30082A4ED01BD877
:101BA000002A33D0042A15D10D460068FFF7B0FF94
:101BB0002268936943F4006393612268936923F474
:101BC0008063936122689369296943EA01239361E1
:101BD00000202FE018462DE00C2A15D10D46006894
:101BE000FFF7D8FE2268D36943F40063D36122680B
:101BF000D36923F48063D3612268D369296943EAF6
:101C00000123D361002015E0012013E00D46006898
:101C1000FFF74AFE2268936943F008039361226844
:101C2000936923F0040393612268936929690B4344
:101C300093610020002384F83C3038BD0D460068D5
:101C4000FFF76CFE2268D36943F00803D361226872
:101C5000D36923F00403D3612268D36929690B4354
:101C6000D3610020E6E70220E7E701F01F014FF013
:101C7000010C0CFA01FC036A23EA0C030362036AF9
:101C80008A4013430362704710B504460846002992
:101C900041D194F83E30013B18BF0123002B6BD19A
:101CA00000284ED1022384F83E30012201462068EC
:101CB000FFF7DBFF2368324A934203D002F58062CC
:101CC000934203D15A6C42F400425A6423682C4A6E
:101CD000934246D0B3F1804F43D0A2F57C42934269
:101CE0003FD002F5806293423BD002F5806293427E
:101CF00037D002F57842934233D002F570529342C6
:101D00002FD0A2F5943293422BD01A6842F00102F0
:101D10001A6000202FE0042907D008290BD094F87E
:101D20004130013B18BF0123B8E794F83F30013B35
:101D300018BF0123B2E794F84030013B18BF0123DC
:101D4000ACE7042805D0082807D0022384F84130E6
:101D5000ABE7022384F83F30A7E7022384F8403042
:101D6000A3E79A6802F00702062A07D01A6842F031
:101D700001021A60002010BD0120FCE70020FAE7F4
:101D80000000014090F83C20012A3DD000B50346F8
:101D9000012280F83C20022280F83D200268506831
:101DA000D2F808E020F0700C086840EA0C0050609F
:101DB0001A68164882421AD0B2F1804F17D0A0F5A7
:101DC0007C40824213D000F5806082420FD000F543
:101DD000806082420BD000F57840824207D000F547
:101DE0007050824203D0A0F59430824205D12EF08B
:101DF000800E496841EA0E019160012283F83D207E
:101E0000002083F83C0000BD022070470000014024
:101E1000026802F10C0353E8003F23F490730C3284
:101E200042E800310029F3D1026802F1140353E8BB
:101E3000003F23F00103143242E800310029F3D1BE
:101E4000036B012B05D0202380F84230002303636D
:101E50007047026802F10C0353E8003F23F01003BF
:101E60000C3242E800310029F3D1ECE710B504460A
:101E70000268136923F44053C1680B4313618368FC
:101E800002691A4343691A43C3691A430168CB685C
:101E900023F4164323F00C031343CB600268536909
:101EA00023F4407381690B4353610368314A9342C1
:101EB00006D002F58062934202D0FFF7CDF801E030
:101EC000FFF7DAF8E369B3F5004F29D000210318D2
:101ED00049411B1841F10001C90041EA5371DB007F
:101EE000181863684FEA83024FEA937341F10001C7
:101EF000FEF79EF9204AA2FB00314909642303FB47
:101F000011031B013233A2FB03235B0903F0F00230
:101F100002EB011203F00F03216813448B6010BD24
:101F20000023021843EB0301121841F10001C9001C
:101F300041EA5271D200101841F100016268921812
:101F40005B41FEF775F90C4AA2FB00314909642395
:101F500003FB1103DB003233A2FB03235B095A00AE
:101F600002F4F87202EB011203F007032168134434
:101F70008B60D4E7001001401F85EB512DE9F04143
:101F800082B004460D4616469846089F23681B6893
:101F900035EA03030CBF4FF0010C4FF0000CB445C1
:101FA00026D1B7F1FF3FF1D0FFF764FC4346C01ADA
:101FB000B84221D817B32368DA6812F0040FE5D0CD
:101FC000802DE3D0402DE1D01A6812F0080FDDD04B
:101FD000002501951A6801925B680193019B2046D8
:101FE000FFF716FF0823636484F84050012000E0E7
:101FF000002002B0BDE8F0810320FAE70320F8E7F3
:1020000060B310B5044690F8413013B3242384F82C
:1020100041302268D36823F40053D3602046FFF791
:1020200025FF2268136923F49043136122685369E2
:1020300023F02A0353612268D36843F40053D3602A
:1020400000206064202384F8413084F842306063CB
:1020500010BD80F8403000F041FAD7E7012070470A
:102060002DE9F04184B01E4690F84130202B57D125
:1020700004460D46002957D003920AB9012050E0CA
:1020800000234364212380F84130FFF7F3FB074628
:10209000039BA384E384A368B3F5805F02D000238D
:1020A000984616E023693BB30023984611E02023AD
:1020B00084F84130032034E0424632F8023B904637
:1020C0002268C3F308035360E28C92B2013A92B2E1
:1020D000E284E38C9BB293B100963B4600228021C0
:1020E0002046FFF74BFF0028E1D1002DE4D015F882
:1020F000012B23685A60E7E7A8461D46E9E70096EA
:102100003B46002240212046FFF738FF18B9202324
:1021100084F8413005E0202384F84130032000E0BA
:10212000022004B0BDE8F0810120FAE7034AD2F8AA
:10213000883043F47003C2F88830704700ED00E047
:1021400008B503460D4A0E490E48006840B10D48D7
:1021500000680344521A934208D80A4A136008BD23
:102160000848DFF824C0C0F800C0F0E700F052FAD9
:102170000C2303604FF0FF30F1E700BF00000220A6
:1021800000040000880000201003002070B588B013
:1021900003AD0024039404940594069407940094DA
:1021A000174B1A6B42F080021A631A6B02F080021E
:1021B0000092009A01941A6B42F001021A631A6BA2
:1021C00002F001020192019A02941A6B42F002029B
:1021D0001A631B6B03F002030293029B094E224613
:1021E00004213046FFF75CF8042303930123049392
:1021F0000594069429463046FEF74EFF08B070BDA0
:10220000003802400004024000B585B0002300936E
:102210000193029303932948294A02604FF48032C4
:102220004260836001220261027680F82030C3623E
:1022300024498162C3600521C16180F83030426168
:10224000FEF7C2F940BB002300930123019304234E
:10225000029369461948FEF7F3FA00BB0223019383
:1022600069461648FEF7ECFAE0B903230193694684
:102270001248FEF7E5FAC0B90423019369460F48F6
:10228000FEF7DEFAA0B90523019369460B48FEF775
:10229000D7FA80B905B000BDFEF72AF8D3E7FEF7FC
:1022A00027F8DBE7FEF724F8DFE7FEF721F8E3E79E
:1022B000FEF71EF8E7E7FEF71BF8EBE7EC0000205F
:1022C000002001400100000F30B589B000230393C6
:1022D0000493059306930793026803F1804303F583
:1022E00090339A4201D009B030BD044600250195D3
:1022F00003F58C335A6C42F480725A645A6C02F4BF
:1023000080720192019A02951A6B42F001021A63DF
:102310001B6B03F001030293029B1F230393032310
:10232000049303A91048FEF7B7FE1048104B036052
:1023300045608560C5604FF4806303614FF40063BE
:1023400043614FF4005383614FF48073C3610562AE
:102350004562FFF737F818B9044BA3639C63C2E7E3
:10236000FDF7C6FFF8E700BF000002408C00002028
:102370001064024000B583B000210191094B1A6B33
:1023800042F480021A631B6B03F480030193019BE8
:102390000A463820FFF7FAF93820FFF707FA03B0AA
:1023A00000BD00BF003802400268094B9A4200D0CD
:1023B000704782B000230193064B1A6C42F0020270
:1023C0001A641B6C03F002030193019B02B0704777
:1023D000000400400038024000B587B0002301939C
:1023E000029303930493059302680D4B9A4201D024
:1023F00007B000BD002300930A4B1A6B42F00102A4
:102400001A631B6B03F001030093009B40230193AD
:1024100002230293059301A90348FEF73DFEE7E777
:1024200000040040003802400000024000B58BB0BC
:102430000023089309930193029303930493059354
:10244000069307931648174A0260436083604FF66D
:10245000FF72C26003618361FFF72EFBB8B90023EE
:102460000893099308A90E48FFF78CFC90B96023E4
:102470000193002202920392059201A90848FFF7F6
:1024800083FB50B90648FFF7A7FF0BB000BDFDF76F
:102490002FFFE4E7FDF72CFFE9E7FDF729FFF1E760
:1024A000340100200004004008B50A480A4B0360CC
:1024B0004FF4E133436000238360C36003610C2267
:1024C00042618361C361FFF79BFD00B908BDFDF761
:1024D0000FFFFBE77C0100200010014000B589B030
:1024E000002303930493059306930793026803F173
:1024F000804303F588339A4201D009B000BD002122
:10250000019103F594335A6C42F010025A645A6CEC
:1025100002F010020192019A02911A6B42F001023C
:102520001A631B6B03F001030293029B4FF4C06319
:10253000039302230493032306930723079303A91A
:102540000148FEF7A9FDD8E700000240DFF834D0CB
:10255000FFF7ECFD0C480D490D4A002302E0D4586A
:10256000C4500433C4188C42F9D30A4A0A4C0023DD
:1025700001E013600432A242FBD300F051F8FDF7F2
:102580000DFF704700000220000000205C000020CA
:10259000D03200085C0000200C030020FEE70000A1
:1025A0000CB430B5154B0C1E1D689DB008DA8B239A
:1025B0002B604FF0FF301DB0BDE8304002B07047D7
:1025C0004FF000031B9318BF0123E31A04930793F2
:1025D0000B4B029006900593209A21AB02A9284646
:1025E000019300F099F9431CBCBF8B232B60002C96
:1025F000E1D0029B00221A70DDE700BF0C00002032
:102600000802FFFF02440346934200D1704703F8DB
:10261000011BF9E7014B1868704700BF0C00002050
:1026200070B50D4B0D4C00261D1BB6EBA50F09D147
:1026300000F008FE0A4C0B4B00261D1BB6EBA50F45
:1026400005D170BD54F8043B98470136EDE754F8C6
:10265000043B98470136F1E7C8320008C832000849
:10266000C8320008CC3200087047704737B50029DF
:1026700044D051F8043C0190002BA1F10404B8BFF0
:10268000E41800F0DDF81E4A0198136833B963605E
:10269000146003B0BDE8304000F0D8B8A34208D9B8
:1026A000256861198B4201BF19685B68491921606F
:1026B000EDE71A465B680BB1A342FAD911685518C9
:1026C000A5420BD1246821445418A3421160E0D1E3
:1026D0001C685B6853600C441460DAE702D90C2371
:1026E0000360D6E7256861198B4204BF19685B68EF
:1026F000636004BF491921605460CAE703B030BD6C
:102700000803002070B50F4C0E462168054611B92C
:1027100000F0B4FB20603146284600F0AFFB431CBC
:1027200003D14FF0FF34204670BDC41C24F00304D5
:10273000A042F8D0211A284600F0A0FB0130F2D1C7
:10274000EFE700BF040300202DE9F843CD1C25F07E
:10275000030508350C2D38BF0C25002D064601DB7E
:10276000A94204D90C2333600020BDE8F883334F1D
:1027700000F066F83B681C463CBB29463046FFF734
:10278000C1FF431C044656D13C68A046B8F1000F77
:1027900040D1002C49D023684146304604EB030960
:1027A00000F06CFB814540D121686D1A2946304606
:1027B000FFF7A8FF013038D023682B4423603B6823
:1027C0005A685ABBC7F800800EE02268521B1ED41C
:1027D0000B2A16D96119A342256018BF5960636896
:1027E00008BF396062514B60304600F02FF804F1A9
:1027F0000B00231D20F00700C21A1CBF1B1AA35098
:10280000B3E76268A3420CBF3A605A60ECE7234624
:102810006468B1E74446D8F80480B7E71A465B68B5
:10282000A342FBD100235360DEE70C233360304624
:1028300000F00CF898E70560D6E700BF0803002019
:102840000148FFF711BF00BF000300200148FFF758
:102850000CBF00BF000300202DE9F0478E681F4623
:10286000BE4282460C469046334653D8B1F90C001E
:1028700010F4906F2BD065692368096905EB450555
:10288000A3EB010905EBD5757B1C6D104B44AB42E6
:102890002A4684BF1D462A46430527D51146504681
:1028A000FFF752FF064658B321694A4600F0F6FA90
:1028B000A38923F4906343F08003A38126616561BB
:1028C0004E44A5EB09052660A5603E463B461F46E3
:1028D00020683A46414600F0B7FAA3689B1BA36004
:1028E00023683B4423600020BDE8F087504600F099
:1028F000E3FA06460028E1D121695046FFF7B6FE0B
:102900000C23CAF80030A38943F04003A3814FF0A1
:10291000FF30E9E73E46DBE72DE9F0471F468B89AC
:102920001B069CB006460D46144610D50B6973B9BC
:102930004021FFF709FF2860286130B90C2333607C
:102940004FF0FF301CB0BDE8F08740236B610023DF
:10295000099320238DF8293003973023654F8DF894
:102960002A304FF0010823461A7899461AB1252AD1
:1029700003F10103F8D1B9EB040A0BD05346224608
:1029800029463046FFF768FF013000F0A380099A1E
:102990005244099299F80030002B00F09B800022ED
:1029A0004FF0FF33CDE9053209F101090492079296
:1029B0008DF853201A924C46052214F8011B4D48FD
:1029C000FDF7E6FB049AD0B9D00644BF20238DF86A
:1029D0005330110744BF2B238DF8533099F8003042
:1029E0002A2B13D007994B4600204FF00A0C1A7877
:1029F000303A092A1C464AD9A8B1079113E0C01BF6
:102A000008FA00F010430490A146D4E7039B191D77
:102A10001B680391002BBBBF5B4242F0020207938D
:102A20000793B8BF049223782E2B0AD163782A2B00
:102A300032D1039B1A1D1B68039243EAE3730234ED
:102A40000593DFF8C090217803224846FDF7A0FBEC
:102A500038B1049BA0EB09004022824013430134AB
:102A60000493217824488DF828100622FDF790FB66
:102A7000002835D0214818BB039B073323F00703F8
:102A800008330393099B0344013409936BE7013333
:102A90000CFB01210120AAE700230593611C1846C5
:102AA0004FF00A0C0A78303A092A0C4603D9002B59
:102AB000C7D00590C5E701310CFB00200123F1E7E9
:102AC00003AB00932A460E4B04A93046AFF30080B7
:102AD000421CD7D1AB895B063FF532AF099831E78D
:102AE00003AB00932A46064B04A9304600F082F857
:102AF000EEE700BF8C3200089632000800000000AC
:102B000059280008923200082DE9F047914698466E
:102B10008A680B69089E9342B8BF1346C9F8003013
:102B200091F8432007460C4612B10133C9F8003032
:102B30002368990642BFD9F800300233C9F8003043
:102B4000256815F0060507D104F1190AE368D9F8DC
:102B500000209B1AAB4229DC94F843302268003BEA
:102B600018BF012392062ED404F143024146384691
:102B7000B047013021D02368A168226903F0060321
:102B8000042B01BFE568D9F80030ED1A25EAE57598
:102B900018BF00258B1A2B449142C8BF1D464FF029
:102BA00000091A344D451AD1002008E0012352468D
:102BB00041463846B047013003D14FF0FF30BDE801
:102BC000F0870135C2E7E1185A1C302081F8430034
:102BD000224494F8451082F843100233C4E70123DD
:102BE000224641463846B0470130E6D009F1010996
:102BF000D8E700002DE9F04398460B7E85B0782B8E
:102C0000174606460C9A0C4609D8622B01F143017F
:102C100008D8002B00F0DC80582B00F0BD8004F1B8
:102C2000420539E0A3F163001528F8D801A555F84D
:102C300020F000BF8D2C0008A12C00081F2C0008DC
:102C40001F2C00081F2C00081F2C0008A12C0008B6
:102C50001F2C00081F2C00081F2C00081F2C000828
:102C6000B12D0008CD2C00085F2D00081F2C000896
:102C70001F2C0008D92D00081F2C0008CD2C00089F
:102C80001F2C00081F2C0008672D00081368191D51
:102C90001B68116004F1420584F842300123A8E06A
:102CA00013682568181D1060280601D51B6803E00D
:102CB0006A06FBD5B3F90030002B03DA2D225B4204
:102CC00084F84320DFF878C10A2213E025681068F1
:102CD00015F0800F50F8043B02D16D0648BF9BB23F
:102CE0001060227EDFF858C16F2A5DD108220020D3
:102CF00084F843006568A560002D05DB20681D434E
:102D000020F00400206051D00D46B3FBF2F002FB2E
:102D1000103E9A421CF80EE005F801ED0346F4D986
:102D2000082A0BD12368DA0708D5236962689A421A
:102D3000DEBF302305F8013C05F1FF35491B216159
:102D4000CDF800803B4603AA21463046FFF7DCFE63
:102D5000013053D14FF0FF3005B0BDE8F083236858
:102D600043F020032360DFF8DCC0782384F845308B
:102D70002068156810F0800F55F8043B03D110F05F
:102D8000400F18BF9BB21560C50744BF40F020003C
:102D9000206023B11022AAE7DFF8A4C0E6E722688A
:102DA00022F020022260F5E70A22A0E70D46B7E7ED
:102DB0001368D4F800C060691D1D15601CF0800FF9
:102DC0001B6801D0186003E01CF0400FFAD0188097
:102DD000002323610D46B3E71368191D11601D68B8
:102DE000626800212846FDF7D3F908B1401B6060F6
:102DF00063682361002384F84330A1E723692A46EE
:102E000039463046C0470130A4D023689B0714D40C
:102E1000E068039B9842B8BF18469DE7012304F180
:102E2000190239463046C047013093D00135E36876
:102E300003995B1AAB42F1DCEAE70025F7E700BF34
:102E40009D320008AE320008884210B501EB020442
:102E500002D98442234607D8431EA14207D011F865
:102E6000012B03F8012FF8E70244824200D110BD84
:102E700013F8011D02F8011DF7E7000038B5064CF4
:102E80000023054608462360FFF75AF9431C02D188
:102E9000236803B12B6038BDFC0200200A44914234
:102EA00000F1FF3300D1704710B511F8014B03F862
:102EB000014F9142F9D110BD2DE9F0410746154669
:102EC0000C4621B9BDE8F0411146FFF73DBC2AB9D7
:102ED000FFF7CCFB2C462046BDE8F08100F01AF845
:102EE0008542064602D8B5EB500FF4D8294638463D
:102EF000FFF72AFC804608B94446ECE7B5422A466B
:102F0000214628BF3246FFF7C9FF21463846FFF762
:102F1000ADFBF1E751F8043C181F002BBCBF0B5868
:102F2000C01870472DE9F04782B00646DDF828E06A
:102F30000846B4460D46002B4ED18A4214466DD940
:102F4000B2FA82F242B1C2F12003954026FA03F3AD
:102F500094401D4306FA02FC260CA7B2B5FBF6F11D
:102F60004FEA1C4306FB115543EA054301FB07F0FA
:102F7000984209D9E31801F1FF3580F003819842A6
:102F800040F20081023923441B1A1FFA8CFCB3FB68
:102F9000F6F006FB10334CEA034C00FB07F36345E5
:102FA0000AD914EB0C0C00F1FF3580F0ED8063457D
:102FB00040F2EA80A444023840EA0140ACEB030C42
:102FC0000021BEF1000F04D02CFA02F30022CEE95A
:102FD000003202B0BDE8F0878B4209D9BEF1000F84
:102FE00001D0CEE900610021084602B0BDE8F087BB
:102FF000B3FA83F1174600294DD1834202D3B2427E
:1030000000F20F81B6EB070C60EB030301201D46B5
:10301000BEF1000FDDD0CEE900C5DAE7002A00F0EE
:1030200098801A46B4FA84F3002B40F0AF800B1B53
:10303000270CA6B20121B3FBF7F54FEA1C4007FBB2
:10304000153340EA034306FB05F8984507D9E31812
:1030500005F1FF3002D2984500F2E8800546A3EB67
:1030600008031FFA8CFCB3FBF7F007FB10334CEAA4
:10307000034C06FB00F3634508D914EB0C0C00F17C
:10308000FF3602D2634500F2CE803046ACEB030C33
:1030900040EA054095E7C1F120058B4022FA05FC86
:1030A0004CEA030C00FA01F426FA05F3E84002FAB0
:1030B00001F943EA04084FEA1C4206FA01FAB0FBA0
:1030C000F2F71FFA8CF602FB17004FEA184444EAA5
:1030D000004407FB06F0A0420AD91CEB040407F1E8
:1030E000FF3380F09C80A04240F29980023F64440C
:1030F000241A1FFA88F3B4FBF2F002FB104443EAEF
:10310000044300FB06F69E4209D91CEB030300F1C1
:10311000FF3480F082809E427FD90238634440EAC7
:103120000740A0FB09749B1BA3423E46A04664D304
:1031300061D0BEF1000F0AD0BAEB060263EB0803C0
:1031400003FA05F5CA401543CB40CEE900530021F0
:103150003FE7730843EAC1734A08190C41EA024188
:103160004FEAC67C9BB2B2FBF4F02646A046274647
:103170001F2243EA0143B1FBF4F1A3EB080341EA48
:10318000004158E72946FFE6284615E71A46C3F1ED
:1031900020019C4026FA01F320FA01F190400343FC
:1031A000270C06FA02FCB1FBF7F0A6B207FB1015DC
:1031B000190C41EA054100FB06F58D423BD9611827
:1031C00001D28D4220D8491B0138B1FBF7F501959A
:1031D00005FB06F8019D9BB207FB151143EA01436D
:1031E000434526D2E31805F1FF31C6D24345C4D288
:1031F000A91E2344C1E7BA459BD2B7EB090664EB8D
:103200000C040138A04694E7651B29440238B1FB41
:10321000F7F5019505FB06F8DCE720467FE71F463A
:1032200066E70846F4E6A44402382FE7023D23444B
:1032300015E70199A1E7491BB1FBF7F5019505FBDE
:1032400006F8C7E7F8B500BFF8BC08BC9E46704753
:0C325000F8B500BFF8BC08BC9E467047F3
:10325C0025752C25752C25752C25752C25750A00A6
:10326C0000061016000610160000000001020304F0
:10327C00000000000000000001020304060708091A
:10328C00232D302B2000686C4C0065666745464743
:10329C0000303132333435363738394142434445C6
:1032AC004600303132333435363738396162636435
:0432BC006566000043
:0832C000D0CEFF7F01000000E9
:0432C800CD0200082B
:0432CC00A50200084F
:1032D00001000000100000000024F4001000002095
:1032E00000000000C40100202C02002094020020F5
:1032F00000000000000000000000000000000000CE
:1033000000000000000000000000000000000000BD
:1033100000000000000000000000000000000000AD
:0C332000000000000000000000000000A1
:040000050800254D7D
:00000001FF
